:020000040800F2
:10000000E80E00205D020008E52900082D27000801
:10001000E1290008DD070008AD5C000800000000D1
:10002000000000000000000000000000F9290008A6
:10003000E107000800000000F5290008FD2900087C
:1000400077020008770200087702000877020008AC
:10005000770200087702000877020008770200089C
:10006000770200087702000877020008770200088C
:10007000770200087702000877020008770200087C
:10008000770200087702000877020008770200086C
:10009000770200087702000877020008770200085C
:1000A000770200087702000877020008770200084C
:1000B000770200087702000877020008770200083C
:1000C000770200087702000877020008770200082C
:1000D0007702000877020008B52C000877020008B4
:1000E000770200087702000877020008770200080C
:1000F00077020008770200087702000877020008FC
:1001000077020008770200087702000877020008EB
:1001100077020008770200087702000877020008DB
:1001200077020008770200087702000877020008CB
:1001300077020008770200087702000877020008BB
:10014000770200087702000877020008E929000812
:10015000770200087702000877020008770200089B
:10016000770200087702000877020008770200088B
:1001700077020008770200087702000800000000FC
:10018000770200087702000800F002F800F056F845
:1001900014A696E8000CB244B344DA4501D100F04D
:1001A0004DF8BAE80F000FA696E83000A5EB04055D
:1001B00004EB0607AAEB0704A7F101074FEA1515A0
:1001C0004FEA3414A4F10104AC4201D300F036F834
:1001D00013F0010F18BFFB1A43F0010300F001F800
:1001E000DBE71847F867000018680000103A24BFE2
:1001F00078C878C1FAD8520724BF30C830C144BF8C
:1002000004680C6070470000704700000023002461
:1002100000250026103A28BF78C1FBD8520728BF16
:1002200030C148BF0B6070471FB506F0BCFA9DE8AF
:10023000030000F095F91FBD10B510BD00F04BFA9A
:100240001146FFF7F1FF05F0F3FE00F069FA03B481
:10025000FFF7F2FF03BC00F099FA0000094880475D
:1002600009480047FEE7FEE7FEE7FEE7FEE7FEE798
:10027000FEE7FEE7FEE7FEE704480549054A064BB0
:1002800070470000AD2A000889010008E808002036
:10029000E80E0020E80A0020E80A002070B5A0FB64
:1002A00001400021D4F1FF3271EB00003CBF00207F
:1002B00070BD204600F083F905001CBF214600F008
:1002C000E6F8284670BD70B50446051F00F02CF90D
:1002D0000068002C14BF446870BD002C18BFAC42ED
:1002E0003CBF20466468F8D301680A18AA4218BFC8
:1002F000456003D12A680546114401602868411908
:10030000A1421CBF6C6070BD6168696021680844CF
:10031000286070BD53EA020C00F069802DE9F04BB3
:100320004FF00006002B1FBFB3FA83F503FA05F464
:1003300024FA05F65E4012BF1643B2FA82F502FABD
:1003400005F4C5F120051EBF22FA05FC44EA0C04A1
:10035000203556EA044C4FEA144418BF641C4FF091
:1003600000084FF00009904271EB030C39D30029CB
:1003700019BFB1FA81F701FA07F6B0FA80F700FA6F
:1003800007F6C7F120071EBF20FA07FC46EA0C0655
:100390002037B6FBF4FCA7EB0507103F07F01F0B57
:1003A000CBF120062CFA06F60CFA0BFB44BFB34641
:1003B0000026202FA4BF5E464FF0000B5BEA060C20
:1003C00008BF4FF0010B19EB0B0948EB0608ABFB1C
:1003D000027C06FB02CC0BFB03CCC01B71EB0C01B7
:1003E000C1E70B46024641464846BDE8F08B13B5CF
:1003F000084318BF4FF0FF300146AFF30080BDE85F
:100400001C407047032A40F2308010F0030C00F0CB
:10041000158011F8013BBCF1020F624498BF11F83E
:1004200001CB00F8013B38BF11F8013BA2F10402F7
:1004300098BF00F801CB38BF00F8013B11F003036F
:1004400000F0EC80083AC0F0088051F8043B083A0C
:1004500051F804CBA0E80810F5E7121D5CBF51F875
:10046000043B40F8043BAFF30080D20724BF11F8EF
:10047000013B11F801CB48BF11F8012B24BF00F854
:10048000013B00F801CB48BF00F8012B70474FF04B
:1004900000020429C0F0128010F0030C00F01B8051
:1004A000CCF1040CBCF1020F18BF00F8012BA8BF5F
:1004B00020F8022BA1EB0C0100F00DB85FEAC17C23
:1004C00024BF00F8012B00F8012B48BF00F8012BD6
:1004D00070474FF0000200B5134694469646203907
:1004E00022BFA0E80C50A0E80C50B1F12001BFF4ED
:1004F000F7AF090728BFA0E80C5048BF0CC05DF853
:1005000004EB890028BF40F8042B08BF704748BFA0
:1005100020F8022B11F0804F18BF00F8012B704714
:10052000704770477047000000487047380000204F
:10053000704770477047704738B504460A46002038
:100540006946AFF30080002808BF38BD0246009915
:10055000204600F09FF8012038BD012000F0B4B81B
:10056000F8B5AFF30080054600200C460C2000BF14
:100570000646A819A0420DD9324669460020AFF3BD
:100580000080070008BF00F09FF80098A04218BF45
:100590000546C419FFF7C8FF05600746F01D20F0A7
:1005A00007004619284600F06FF8B44208BFF8BDAE
:1005B000A21B31463868BDE8F84000F06BB870B552
:1005C0000646FFF7B1FF056806F10B0020F00704AF
:1005D000B4429CBF002070BD2B466A68BAB1106857
:1005E000A04210D304F1080188423CBF5068586013
:1005F00007D35168101941601168091B01605860E8
:100600001460101D70BD13465268002AE7D12146C0
:100610002846FFF791FF0028DED170BD10B5203AC3
:10062000C0F00B80B1E81850A0E81850B1E818509D
:10063000A0E81850203ABFF4F5AF5FEA027C24BF6F
:10064000B1E81850A0E8185044BF18C918C0BDE858
:1006500010405FEA827C24BF51F8043B40F8043B21
:1006600008BF7047D20728BF31F8023B48BF11F8D6
:10067000012B28BF20F8023B48BF00F8012B704730
:100680000048704730000020002101604160704741
:100690000C207047034640688C46002818BF8842EB
:1006A0003CBF03464068F8D318681844884207D016
:1006B0000CF1030020F00700001D411A521A0146F8
:1006C000081D0A60FFF7FFBD10B500F037F8BDE860
:1006D000104000F02EB87546FFF7D2FFAE46050079
:1006E0006946534620F00700854618B020B5FFF74D
:1006F000C3FDBDE820404FF000064FF000074FF06B
:1007000000084FF0000BAC46ACE8C009ACE8C009EB
:10071000ACE8C009ACE8C00921F007018D4670477C
:1007200010B50446AFF300802046BDE81040FFF747
:100730008EBD002801D000F029B8704710B50128FF
:1007400005D0002103A000F028F8012010BD09A168
:10075000F8E7000053494752544D454D3A204F7534
:1007600074206F662068656170206D656D6F7279A9
:10077000000000003A2048656170206D656D6F7261
:100780007920636F72727570746564000149182076
:10079000ABBEFEE726000200704770B505460C466A
:1007A0000A2000E06D1C00F011F835B1287800280F
:1007B000F8D102E0641C00F009F814B12078002898
:1007C000F8D1BDE870400A20AFF3008008B5694653
:1007D0008DF800000320ABBE08BD0000FEE700005E
:1007E0007047000072B600BFFEE7000070B5866D6E
:1007F000044600F045F994F83510022928D1054641
:100800002068216C026822F016020260426922F020
:100810008002426109B9A16C19B1016821F0080197
:100820000160016821F00101016000BF20680068DB
:10083000C00715D000F024F9401B0628F6D320206D
:100840006065032084F83500002184F8341070BD01
:10085000802060650120002184F8341070BD00BF45
:10086000E06D3F2101FA00F0B060012084F835000E
:100870000020002184F8341070BD000090F835107D
:10088000022909D1052180F835100068016821F09E
:1008900001010160002070478021416501207047FF
:1008A000B0B5044600F0ECF8054640F20000C2F294
:1008B00000000078611C18BF044400BF00F0E0F89D
:1008C000401BA042FAD3B0BD2DE9F04F83B000F138
:1008D000200200F13E4741F60045009207F1FF7704
:1008E000C4F2020508224FEAB726A84208BF072231
:1008F00000254FF000084FF00009072E38BF4FEADF
:10090000B72201920AE000BF09F1010908F10208CB
:10091000B9F1100F05F1040500F0A2800F68012263
:1009200002FA09FE17EA0E0AEED0D1F804C003223B
:100930000CF003077E1E02FA08F4012E6FEA040B86
:1009400012D88468CE6804EA0B0406FA08F6344329
:100950008460446824EA0E06CCF3001404FA09F417
:100960002643466004E000BF032F01D103271EE0A9
:10097000C6688C6806EA0B0604FA08F42643022FC0
:10098000C66014D16FF00302009E02EA590756F8C0
:1009900007C005F01C040F220B69A2402CEA0202DA
:1009A000A3401A43F251D1F804C00CF003070268C7
:1009B00007FA08F302EA0B021A431CF4403F0260F4
:1009C000A2D0002243F644030292C4F202031A6842
:1009D00043F6004442F480421A601A68C4F20104EB
:1009E00002F480420292029A29F003024FF6084C68
:1009F0002244CFF6FF7C52F80C3005F00C070F268E
:100A0000BE40B343019E06FA07F73B4342F80C3061
:100A1000A2684B6842EA0A0743F60C4CDE0258BF54
:100A200022EA0A07A760C4F2010CDCF800209E024B
:100A300042EA0A0758BF22EA0A07CCF80070626847
:100A40009E0342EA0A0758BF22EA0A076760226843
:100A5000DB0342EA0A0758BF22EA0A07276053E786
:100A600003B0BDE8F08F00000069084018BF012006
:100A700070470000002A08BF090481617047000028
:100A800040F6E000C2F2000000687047D0F8DC03D6
:100A900002F0B2BFD0F8DC0302F0BABF006803F086
:100AA000B9BD0000006803F0B9BD0000C1EB011141
:100AB00000EB810090F84C0070470000C1EB011181
:100AC00000EB8100806B704790F8D423012A04BFAB
:100AD0000220704710B50268012380F8D433044621
:100AE000104603F0ABFD002084F8D40310BD0000D5
:100AF0002DE9F04F83B0044690F8D403012803D1C8
:100B0000022003B0BDE8F08F012084F8D403C1EBCC
:100B1000011004EB800B0BF8143F02F07F008BF800
:100B20000200D009DDE90D958BF80300206800264E
:100B300098468BF805608A468BF801108BF8129066
:100B4000ABF806601746ABF8106003F067FDB9F12B
:100B5000010F0DD1BC2D294628BFBC2100280C98BF
:100B600018BF2946012808BF0D46014601E000BF15
:100B70000C9920688BF80410ABF81450CDE90019DB
:100B800051463A464346029503F01AFE84F8D46370
:100B900003B0BDE8F08F0000704700002DE9F04180
:100BA000DDE906648C46C1EB0111DDE908E500EBE7
:100BB0008107002E07F11401FA7587F8263006BF69
:100BC0004D7103250225032B4FF000088D7518D8B1
:100BD0000027DFE803F00715030300BF52B191F8C7
:100BE000282009E0012E0CD1D2B18A79012AF6D051
:100BF00007E000BF91F82920002A18BF0122570002
:100C00008F75036882798C61A1F83880C1E908E8A2
:100C1000184681F801C0BDE8F04103F069BE00BF8D
:100C2000BEF1000F06D091F82920002A18BF022734
:100C3000E6E700BF012281F829200227E0E7000053
:100C40002DE9F04F85B0D0F800800446404603F00F
:100C5000F1FC012840F08884206804F05DF9002848
:100C600000F08284206804F057F901462068890268
:100C700044BF4FF40011416104F04EF90146206871
:100C8000C90244BF4FF48011416104F045F90146A7
:100C90002068490144BF4FF08061416104F03CF994
:100CA00001462068890744BF0221416104F034F9FC
:100CB00001462068890018D54FF000514161D8F8ED
:100CC0004014C90711D14046102103F043FC4046AF
:100CD00003F0E0FB607A022803D12068012104F0D0
:100CE000F3F82046FFF7D6FE206804F015F92668D1
:100CF000C0011CD5D6F840040490D6F840040390F7
:100D0000039820F02E0003900498800700F1D6830A
:100D10000498000700F1E0830498800603D5039847
:100D200040F0200003900398C6F84004266830463F
:100D300004F0F2F8000701D4206805E0204600F036
:100D4000C7FC20680821416104F0E6F801462068EC
:100D5000890140F18B8303F0C7FD6179029000297E
:100D600000F080834FF4A0654FF000094FF0000BB6
:100D7000CDF8048013E000BFA8194FF40071816022
:100D8000206800BF514603F059FC60790BF1010B5C
:100D900009F13C09834505F1200580F06383029940
:100DA0000BF00F0021FA00F0C007EED058F80570E4
:100DB00026685FFA8BFA3046514604F0A5F83904EC
:100DC0004FEA407066D4002800F1828020685146C6
:100DD00004F09AF8800600F189802068514604F0FA
:100DE00093F88005C8D42068514604F08DF8C007F8
:100DF00040F0AE802068514604F086F8400600F1CD
:100E0000B7812068514604F07FF8000700F1E081C7
:100E10002068514604F078F8C00600F1E1812068AE
:100E2000514604F071F8000600F17A8220685146BC
:100E300004F06AF8400500F187822068514604F00A
:100E400063F88007A1D5A9190220886004EB090086
:100E500090F84D20013A082A97D8DFE812F0A7024F
:100E600009009B02CB02DD02E3020B0009000B002C
:100E70008BE700BF426C02230132032A80F84D3019
:100E80004264C0F0AF8200210422416480F84C200B
:100E90001DE200BF002825D42068514604F034F834
:100EA000C0054DD42068514604F02EF800074BD4FD
:100EB0002068514604F028F8400569D4206851465E
:100EC00004F022F8000671D50721802064E000BFFD
:100ED000A81904218160206804EB0901072281F828
:100EE0004D204FE70721042056E000BFA81920211C
:100EF000816004EB0906707E012809D1002070761C
:100F0000206840F20231A6F84C10514603F096FBDF
:100F1000B07E01287FF439AFF07E00287FF435AF32
:100F200096F82600032101281CBF0120F0762068D6
:100F300086F84D10514603F081FB0020706424E7D1
:100F400008214FF4807027E00621082024E000BF2C
:100F500004EB090820680021C8F84410514603F04A
:100F6000D3FF400605D5012088F81900A8194021B3
:100F7000816098F81B00002800F01E81002088F88E
:100F80001B00A819416821F48031416015E100BFC0
:100F900009214FF4806000BFAA19906004EB090298
:100FA000206882F84D10514603F048FB20685146F6
:100FB00003F0AAFF01462068890537D4514603F0A3
:100FC000A3FFC0073AD12068514603F09DFF800679
:100FD00000F17A802068514603F096FF800700F107
:100FE0009B802068514603F08FFF400600F1D480BB
:100FF0002068514603F088FFC0067FF5C6AE04EBBB
:10100000090898F82600002818BF022840F06481DB
:10101000A07900284FF00000C8F8440000F061817A
:1010200098F81B00012800F05C8161E1514603F053
:1010300005FBA8194FF400718160A6E605EB0608D0
:101040002020C8F8080004EB0906F07E012807D12B
:101050000020F076D8F8040020F48030C8F80400AE
:10106000A07930B1306BD8F810106FF3DF41401A1F
:10107000B0630121002086F84D107064C8F8081094
:1010800096F8260003280AD8DFE800F0022C022C8C
:101090002068514603F0D2FA1020C8F80800A07961
:1010A000012830D1B06B318DDDF80480084401385F
:1010B000B0FBF1F0C0073FF468AE96F83C0080F05A
:1010C000010086F83C0060E6A8192021816004EB4D
:1010D0000901887E01287FF458AE0120C876206877
:1010E0000322FCE6D8F80000514640F00050C8F852
:1010F0000000012086F84C0020460122FFF74CFD3D
:10110000A0790128CED096F83C00DDF8048080F06C
:10111000010086F83C0038E6A9190220886004EB3B
:10112000090090F84D20013A082A00F2CE80DFE84D
:1011300002F0B70587A76DBD07C3070025E600BF0E
:10114000426C02230132032A80F84D304264C0F021
:101150009380827E012A4FF00002426440F0B28008
:10116000A0F81B204A6822F480324A60AAE000BF3F
:1011700004EB0901887E002200284FF0050081F869
:101180004D0004BF0120487620684A64514603F0B0
:1011900055FAA81940214FE7A8194021816004EBB6
:1011A0000900817E00294FF0050180F84D1004BF31
:1011B000002141642068E5E5A819012181602068CB
:1011C00088F84D10514603F039FADDF80480DCE56B
:1011D000A81908218160206804EB090106227EE637
:1011E00004EB0900417E002200294FF00401426413
:1011F00080F84D1004D1017E002904BF0121417601
:101200002068514603F01AFAA81986E0C27E02232C
:10121000012A80F84D3058D190F82620032A34D185
:10122000826C0132032A8264C0F0B080426C0023D9
:101230008364022AC3769CBF0122027792E700BF33
:10124000C27E0223012A80F84D303ED180F84C3016
:101250004A6842F480324A60CA6842F04002CA607A
:10126000CA6822F02002CA6090F8262042F00202EA
:10127000022A10D029E000BF90F8262005E000BF28
:1012800090F82620022380F84D3042F00202022A14
:1012900080F84C3019D10A6863F39F720A6014E039
:1012A000022180F84D1001210DE000BF022180F8DD
:1012B0004D10052107E000BF416C0222013180F88A
:1012C0004D204164042180F84C1090F84C202046B9
:1012D0005146FFF761FC58E5032809D10020C8F802
:1012E00044002068042188F84D10514603F0A6F907
:1012F00098F81B0001280DD1002088F81B00A819C0
:10130000416821F480314160C16841F02001C16031
:1013100001E000BFA819DDF8048010218CE600BFB1
:10132000A079F8B104EB0900416C01310329416453
:1013300022D300214164042180F84C1020465146FC
:101340000422FFF729FC1EE004EB090120680922B2
:1013500081F84D20514603F071F9A8194FF48061CE
:101360006AE600BF04EB09012068072281F84D20DE
:10137000514603F063F906E0022180F84C10A859A9
:1013800061F39F70A851A819802155E680F84C3070
:101390009BE700BFC17E01294FF0020180F84D108C
:1013A00093D1022280F84C2091E700BF022180F8FF
:1013B0004D1090F82610012201F0FE01022980F85C
:1013C0004C207FF484AFA179012933D0002945D185
:1013D00090F83D10DDF8048081F0010180F83D10A7
:1013E00075E700BF022280F84C20086862F39F7006
:1013F00008606CE7C37E0222012B80F84D2080F844
:101400004C207FF464AF0022C2764868022220F4A8
:10141000803048605BE700BF022280F84D2080F8F2
:101420004C2054E70221052280F84D1080F84C2012
:101430004DE700BF416B89B1028D11440139B1FB09
:10144000F2F1C90705D090F83D1081F0010180F854
:101450003D10DDF80480012239E700BFDDF804808B
:1014600035E700BF20684FF00071416103F054FD83
:10147000C00679D52568A86920F01000A861286AFF
:1014800000F4F011B1F5802F69D1C0F30A16002ED7
:1014900065D000F00F08C8EB081004EB8000C16AAB
:1014A00000295CD000F11407D7E9080232448242D7
:1014B00032D9042087F8380051E000BF0498C007F3
:1014C00002D02046FFF7E2FA039840F002000390B2
:1014D000049800077FF520AC039840F008000390C3
:1014E0000498400708D4204600F0E6F804988006E7
:1014F0003FF515ACFFF717BC607A022838D1049885
:1015000000F4C0212068B1F5802F14BF0121022111
:1015100003F0DAFC33E000BF2846324603F000FD5A
:10152000B869796A3044B8618819786205EB481067
:10153000D0F81015BA8A964211D10022C1F6F8727D
:1015400011400CD000F5A0600168022262F39F7187
:10155000016097F8280080F0010087F828002068D3
:10156000816941F01001816105B0BDE8F08F00BFD5
:10157000E079012804BF4EF66020C6F80404204636
:1015800000F09EF8049880063FF5C9ABFFF7CBBB8F
:10159000002804BF01207047B0B582B0044605683A
:1015A00090F8D50328B9002084F8D403204600F031
:1015B00035F80320B5F1A04F84F8D50304BF00200F
:1015C000A071206802F030FF94E80F00257C0095A0
:1015D00002F0EEFD30B10120022184F8D51302B0F3
:1015E000B0BD00BF2068012103F010FD30B1022121
:1015F000012084F8D51302B0B0BD00BF94E80F00FD
:10160000257C009503F0F0FA012100281CBF02217F
:10161000012084F8D51302B0B0BD0000F0B587B04A
:1016200000680026B0F1A04F0696CDE90466039647
:10163000029601D007B0F0BD43F630070196C4F220
:1016400002073868002440F0010038603868C4F2AE
:10165000020400F00100019001984FF4007002AD07
:10166000CDE90206204629460496FFF72DF94FF4EE
:10167000E05002900220CDE903060A2006902046A1
:1016800029460596FFF720F97868002140F0800090
:10169000786001967869002240F48040786178692A
:1016A00000F4804001900198432000F0BFF84320EF
:1016B00000F0AAF807B0F0BDD0F8DC0302F038BAA9
:1016C000D0F8DC0302F03CBA006803F07FBC0000F5
:1016D000D0F8DC0302F0D4B990F8D413012904BF88
:1016E0000220704710B50168012280F8D423044617
:1016F0000846012102F0A0FE206802F0C3FE00208F
:1017000084F8D40310BD000090F8D413012904BF5D
:101710000220704710B50168012280F8D4230446E6
:10172000084603F027FE002084F8D40310BD000013
:1017300040F2000040F6E001C2F20000C2F20001F7
:1017400000780A68104408607047000080B543F6CE
:101750000040C4F20200016841F4007101600168B8
:1017600041F480610160016841F4807101600320EF
:1017700000F088F8002000F005F800F027F80020BD
:1017800080BD000070B540F20006C2F2000640F2D3
:1017900028013278C2F200014FF47A730968B3FB72
:1017A000F2F20446B1FBF2F1084600F063FB0F2CA5
:1017B0004FF0010508D838B94FF0FF30214600221C
:1017C000002500F033F87460284670BD82B0002018
:1017D00043F640010190C4F202014A6842F480429B
:1017E0004A604A6802F480420192019A00900868B7
:1017F00040F080500860086800F080500090009829
:10180000072002B000F03EB8002848BF704700F043
:101810001F01012202FA01F11C2202EAD0004EF25D
:101820000012CEF2000281507047000010B54EF653
:101830000C5CCEF2000CDCF80030C3F3022E8EF00C
:101840000704042C28BF0424BEF103034FF0FF3E1D
:101850000EFA04F438BF0023A14399400EFA03F3B3
:101860009A43114300F00F0200F160430901043A6A
:1018700003F564436244002848BF02F10C03197069
:1018800010BD00004EF60C51CEF200010A684FF672
:10189000FF031A4060F30A2242F0806040F0FD70BE
:1018A00008607047002804BF012070472DE9F0410F
:1018B00043F60808C4F202080446D8F8F8030D46B7
:1018C00000F00700814207D988F8F853D8F8F803E8
:1018D00000F00700A84277D12068810717D541079B
:1018E00005D5D8F8001041F4E051C8F80010010700
:1018F00005D5D8F8001041F46041C8F80010D8F8B8
:101900000010A26821F0F0011143C8F80010C007D0
:1019100040D1D8F8F80300F00700854207D288F8D4
:10192000F853D8F8F80300F00700A8424CD120681B
:10193000410707D5D8F80010E26821F4E0511143BF
:10194000C8F80010000708D5D8F80000216920F475
:10195000604040EAC100C8F8000000F07DF8D8F807
:10196000001046F2C072C1F30311C0F60002515CD0
:1019700040F2280220FA01F140F20400C2F2000015
:101980000068C2F200021160FFF7FCFE0020BDE813
:10199000F08100BF6068811E022907D258F8081C38
:1019A00089015CBF0120BDE8F08111E0012807D169
:1019B00058F8081C89035CBF0120BDE8F08107E0EE
:1019C00058F8081C890703D40120BDE8F08100BF46
:1019D000D8F8001021F003010843C8F80000FFF711
:1019E0004FF8064641F28837D8F80000616800F0E9
:1019F0000C00B0EB810F8CD0FFF742F8801BB8428F
:101A0000F2D90320BDE8F08140F2280043F6080136
:101A1000C2F20000C4F202010068096846F2D07206
:101A2000C1F38221C0F60002515CC840704700003B
:101A300040F2280043F60801C2F20000C4F202019D
:101A40000068096846F2D072C1F34231C0F6000264
:101A5000515CC8407047000010B543F60404C4F25E
:101A600002046168C1F3810142F20040C0F2F40057
:101A7000DFE801F002040A0210BD00BF41F20020BD
:101A8000C0F27A0010BD00BF216801F03F0221685A
:101A900023684902C3F3881106D4A1FB0001002387
:101AA000FEF738FC07E000BF41F20020C0F27A00E8
:101AB0004843B0FBF2F021680222C1F3014102EB7E
:101AC0004101B0FBF1F010BD002804BF01207047B8
:101AD0002DE9F04182B00446007843F60006C007C5
:101AE000C4F202060CD0B06800F00C00042840F0EC
:101AF00081803068800303D56068002800F0688129
:101B0000207880071BD5B06810F00C0F09D0B068A2
:101B100000F00C00082840F087807068400200F157
:101B200083803068800703D5E068012840F0508149
:101B30003068216920F0F80040EAC1003060207868
:101B4000000713D4207840072AD4A569002D00F09F
:101B50003A81B06800F00C00082840F0A580012D03
:101B600040F00E81012002B0BDE8F08160690028DC
:101B700000F082800020C4F247200121C0F8801EBE
:101B8000FEF77EFF054600BF706F8007DAD4FEF7D0
:101B900077FF401B0228F7D9032002B0BDE8F0818F
:101BA000306C5FEAC0080AD400200190306C40F02D
:101BB00080503064306C00F080500190019847F202
:101BC0000007C4F200073868C00547D4386840F4FD
:101BD00080703860FEF754FF054600BF3868C005C6
:101BE0003CD4FEF74DFF401B0228F7D9032002B07A
:101BF000BDE8F081B06800F00C00082803D17068DF
:101C000040023FF576AF61683068B1F5803F07D09C
:101C1000B1F5A02F40F09A8040F480203060306809
:101C200040F4803030609AE0E068002840F2000024
:101C3000C4F247205CD001210160FEF721FF054678
:101C4000306880073FF574AFFEF71AFF401B02288B
:101C5000F6D9032002B0BDE8F08100BFA168306F63
:101C6000012905D0052955D140F004003067306FB7
:101C700040F00100306756E00020C4F24720002108
:101C8000C0F8801EFEF7FCFE054600BF706F80079F
:101C90007FF558AFFEF7F4FE401B0228F6D903206B
:101CA00002B0BDE8F08100BF0027C4F24727002042
:101CB0003866FEF7E5FE022D05460DD1306880013D
:101CC00040F18A80FEF7DCFE401B02284FF0030043
:101CD000F4D902B0BDE8F0813068800173D5FEF719
:101CE000CFFE401B02284FF00300F5D9F1E700BFFB
:101CF00000210160FEF7C4FE054600BF3068800782
:101D00007FF51DAFFEF7BCFE401B02284FF003001D
:101D1000F4D9DEE720F001003067306F002920F0B1
:101D2000040030677AD0FEF7ABFE054641F28837F3
:101D3000306F800700F18480FEF7A2FE401BB8429E
:101D4000F6D9032002B0BDE8F08100BF20F4803056
:101D500030603068002920F4802030607AD0FEF7AF
:101D60008FFE0546306880033FF5CAAEFEF788FE59
:101D7000401B6428F6D9032002B0BDE8F08100BF03
:101D80007068E16900F480028A4221D1216A00F082
:101D90003F028A421CD147F6C071626A0140B1EB32
:101DA000821F15D1A16A4FF6FF73C903994300F44E
:101DB0004032A1F580318A420AD1E16A00F07060B8
:101DC000B0EB016F04D1002002B0BDE8F08100BF8C
:101DD000012002B0BDE8F08104F11C052FCD0843BD
:101DE00040EA8210D9034FF6FF729143A1F580318A
:101DF00040EA05600843706001203866FEF740FE47
:101E0000044600BF30688001DDD4FEF739FE001BB8
:101E100002284FF00300F5D95BE700BFFEF730FE64
:101E2000054641F2883700BF306F800708D5FEF7BE
:101E300027FE401BB8424FF00300F5D949E700BF29
:101E4000B8F1000F3FF581AE306C20F08050306467
:101E50007BE600BFFEF714FE054600BF3068800336
:101E60007FF54EAEFEF70CFE401B64284FF00300DA
:101E7000F4D92EE7411E0020B0EB116F1CBF0120EA
:101E800070474EF21002CEF2000251604EF623511E
:101E9000CEF20001F0230B700721906011607047B3
:101EA0007047000070470000B0B582B001680A6852
:101EB000CC684B6902F02F05202D04F0200505D1D8
:101EC00025B102B0BDE8B04000F000BE5FEA027C80
:101ED0001EBF03F0010E04F4907313EB0E0341D107
:101EE000036BD50618D5012B16D114F0100313D0AF
:101EF000002201920A6801924A680192019A496996
:101F000049064BD4818DC28DC38D002B18BF9142E1
:101F100040F0068202B0B0BD13062DD514F0800348
:101F20002AD090F84120212AF4D18268B2F5805F4E
:101F300003D10269002A00F07982026A531C03620D
:101F400012784A60C28C013A1304C284E2D1C86894
:101F500020F08000C860C86840F04000C86002B04F
:101F6000B0BD00BFD30718BF14F4807340F0E28007
:101F7000530700F1E580EAE05206CBD514F04002A9
:101F8000C8D0CA6822F04002CA60202180F84110FF
:101F900002B0BDE8B04000F0C7BB00BFC26B116823
:101FA0004B68858D99B2002900F0B480A94280F079
:101FB000B180C385D169B1F5807F00F0A080016850
:101FC00051E8031F026821F4807142E80313DBB17A
:101FD000016851E8031F026821F4807142E803138D
:101FE00093B1016851E8031F026821F4807142E84F
:101FF00003134BB1016851E8031F026821F480719B
:1020000042E80313002BDAD1016851E8051F02688A
:1020100021F0010142E80513BBB3016851E8051F37
:10202000026821F0010142E8051373B3016851E829
:10203000051F026821F0010142E805132BB3016876
:1020400051E8051F026821F0010142E80513002B49
:10205000DAD11AE0016851E8051F026821F0400159
:1020600042E80513DBB1016851E8051F026821F061
:10207000400142E8051393B1016851E8051F026869
:1020800021F0400142E805134BB1016851E8051FFA
:10209000026821F0400142E80513002BDAD120212B
:1020A00080F8421000210163016851E8031F0268B3
:1020B00021F0100142E80313DBB1016851E8031F6E
:1020C000026821F0100142E8031393B1016851E85E
:1020D000031F026821F0100142E803134BB10168AD
:1020E00051E8031F026821F0100142E80313002B9E
:1020F000DAD1C16B04460846FEF778FB2046022180
:102100004163818DC28D891A89B202B0BDE8B040A9
:10211000FFF7C6BE8D427FF4FDAED269B2F5807F77
:102120007FF4F8AE0222426302B0BDE8B040FFF790
:10213000B7BE00BF436C43F001034364530706D5A9
:10214000BEF1000F03D0436C43F0020343649307D6
:1021500006D5BEF1000F03D0436C43F00403436483
:10216000BCF1000F06D55EEA050303D0436C43F0D3
:1021700008034364436C002B3FF4CCAE920605D5B4
:1021800025B1044600F0A2FC216820464969426C52
:1021900001F0400102F00802891800F0B98000BF88
:1021A000016851E8031F026821F4907142E80313AB
:1021B000BBB3016851E8031F026821F4907142E843
:1021C000031373B3016851E8031F026821F490718F
:1021D00042E803132BB3016851E8031F026821F49E
:1021E000907142E80313002BDAD11AE0016851E83C
:1021F000051F026821F0010142E80513DBB1016807
:1022000051E8051F026821F0010142E8051393B16E
:10221000016851E8051F026821F0010142E8051339
:102220004BB1016851E8051F026821F0010142E845
:102230000513002BDAD1016B012924D1016851E883
:10224000031F026821F0100142E80313DBB10168AB
:1022500051E8031F026821F0100142E8031393B113
:10226000016851E8031F026821F0100142E80313DE
:102270004BB1016851E8031F026821F0100142E8E8
:102280000313002BDAD1202180F8421000210163D2
:1022900001684969490640F1C380016851E8051F9A
:1022A000026821F0400142E80513DBB1016851E802
:1022B000051F026821F0400142E8051393B101684F
:1022C00051E8051F026821F0400142E805134BB1B7
:1022D000016851E8051F026821F0400142E805133A
:1022E000002BDAD1C16B002900F09A8042F6C1229E
:1022F000C0F60002044608460A65FEF7BFFA002849
:102300003FF408AEE06B016D02B0BDE8B040084795
:102310000446FFF7C7FD0020606402B0B0BD00BFF7
:10232000891A00BF026852E8032F036822F49072F2
:1023300043E80325BDB3026852E8032F036822F483
:10234000907243E8032575B3026852E8032F0368CF
:1023500022F4907243E803252DB3026852E8032F5C
:10236000036822F4907243E80325002DDAD11AE0C5
:10237000026852E8052F036822F0010243E80525B0
:10238000DDB1026852E8052F036822F0010243E83C
:10239000052595B1026852E8052F036822F0010275
:1023A00043E805254DB1026852E8052F036822F085
:1023B000010243E80525002DDAD1202280F84220D1
:1023C00000220263026852E8032F036822F0100221
:1023D00043E80325DDB1026852E8032F036822F0C9
:1023E000100243E8032595B1026852E8032F036801
:1023F00022F0100243E803254DB1026852E8032F92
:10240000036822F0100243E80325002DDAD10222EE
:1024100089B2426302B0BDE8B040FFF741BD00BFE2
:1024200002B0BDE8B040FFF73DBD00BF026A32F820
:10243000023B6FF35F234B60026283E5002804BF19
:102440000120704710B5044690F8410028B90020DB
:1024500084F84000204600F021F8242084F8410050
:102460002068C16821F40051C160204600F0AEFB35
:102470002068016921F490410161416921F02A013C
:102480004161C16841F40051C160002020216064B5
:1024900084F8411084F84210606310BD80B586B0A6
:1024A00044F200410068C4F2000100228842059213
:1024B000CDE903220292019202D006B080BD00BF96
:1024C00043F630000092C4F20200036943F4003383
:1024D0000361036903F400330093009B00920368D7
:1024E00043F001030360006800F0010000900098D1
:1024F0000C2001900220CDE9020203200490072065
:10250000059001F5DE3001A9FEF7DEF92620002155
:102510000022FFF78BF92620FFF776F906B080BD81
:1025200090F84230202B07D100294FF0010318BF4B
:10253000002A05D11846704702231846704700BF8D
:1025400000230363816222218285C285436480F86F
:1025500042100169006819B1C16841F48071C1601D
:10256000416941F001014161C16841F02001C16050
:1025700018467047006844F20041C4F200018842E6
:1025800018BF704740F69400C2F20000012103F02A
:102590004DBE00002DE9F04381B0044690F84100A3
:1025A000202809D100294FF0010018BF002A07D1C7
:1025B00001B0BDE8F08300BF022001B0BDE8F083A8
:1025C0000020606421201D460E4684F84100174615
:1025D000FEF756FAA784E784A1688146B1F5805FCB
:1025E00002D1206900285DD037460020E28C2168A6
:1025F000002A5DD06A1C24D0002D4AD0804600BF3E
:102600000868000608D4FEF73BFAA0EB0900A842D0
:102610007AD82168C868F3E717B117F8010B04E00E
:1026200038F8020B00276FF35F204860E08C013818
:10263000E084E08C0028E3D13AE000BF0A6812068B
:1026400009D40A68120606D40A6812065CBF0A6832
:102650005FEA0262F2D51FB117F8012B05E000BF57
:1026600030F8022B00276FF35F224A60E28C013AB8
:10267000E284E28C002AE4D11AE000BF30F8022B99
:1026800000276FF35F224A60E28C013AE284E28C19
:1026900072B10A68120635D5002FEFD017F8012B5A
:1026A000F1E700BF00273046E28C2168002AA1D163
:1026B000086840061ED42DB3681C14D10868400673
:1026C0002AD40868400627D40868400624D408683D
:1026D00040064FF00000F1D50DE000BF2068C16852
:1026E0000068400618D4FEF7CBF9A0EB0900A84219
:1026F000F4D909E00020202184F8411001B0BDE8A0
:10270000F08300BFFEF7BCF90320202184F84110BC
:1027100001B0BDE8F08300BF0020202184F8411003
:1027200001B0BDE8F083000070470000FEE7000044
:102730000246002840F60000C4F202004FF00101FA
:1027400018BF0122FEF796B92DE9F04F87B0002798
:1027500043F630000697CDE90477CDE9027701977B
:10276000C4F20200016840F6000541F0100101606A
:102770000168C4F2020501F010010191019901976D
:10278000016805F5006841F004010160016800225C
:1027900001F0040101910199019701684FF0080AC5
:1027A00041F080010160016801F08001019101990F
:1027B0000197016841F001010160016801F0010128
:1027C000019101990197016841F0020101600168DE
:1027D00001F00201019101990197016841F008019E
:1027E00001600068082100F008000190019840464F
:1027F000FEF740F92846012101220124FEF73AF9AB
:10280000284610210022FEF735F905F58069484673
:102810004FF210210022FEF72DF902AE404631465C
:10282000CDE902A4CDE90477FEF74EF81120CDE9F9
:102830000204284631460124CDE90477FEF744F826
:10284000CDF808A04FF0020B4FF0050A284631469C
:10285000CDE903B70597CDF818A0FEF735F8CDE917
:102860000247A5F50064204631460497FEF72CF890
:102870001020CDE9020B0620069020463146CDE916
:102880000477FEF721F8E020CDE9020B204631461F
:10289000CDE90477CDF818A0FEF716F80420A5F5C9
:1028A0008064CDE90207204631460497FEF70CF814
:1028B0004FF48060CDE9020B20463146CDE9047724
:1028C000CDF818A0FEF700F84FF21020029001207A
:1028D0000390484631464FF0010ACDE90477FDF7F1
:1028E000F3FF4FF4A450CDE9020B062006902846D2
:1028F0003146CDE90477FDF7E7FF2020CDE9020757
:10290000484631460497FDF7DFFF4FF41070029000
:102910001220CDE9030A042006902046314605978F
:10292000FDF7D2FF4FF49010CDE903074046314642
:10293000CDF808B0FDF7C8FF07B0BDE8F08F000084
:1029400080B540F64C0044F20041C2F20000C4F2EF
:10295000000100234FF00C0C4FF4614280E80E00A0
:10296000C0E90333C0E905C3C361FFF767FD002871
:1029700008BF80BDBDE88040FDF734BF80B540F2A0
:10298000940044F27511C2F20000C0F60001012269
:1029900000F0E4FF002818BFFDF724FF40F2940088
:1029A00040F20801C2F20000C2F2000101F096FB01
:1029B000002818BFFDF716FF40F29400C2F2000095
:1029C00001F0CEFB002808BF80BDBDE88040FDF7C8
:1029D00009BF000040F29400C2F2000001F028B9E3
:1029E000FEE70000FEE7000040F26C40C2F200008B
:1029F000FEF726B97047000070470000FEF798BE4A
:102A000070B592B006AC20463021FDF762FD00257E
:102A100043F640000595CDE90355CDE901550095F4
:102A2000C4F202000168022641F080510160006892
:102A300000F080500090009847F200000095C4F22A
:102A40000000016841F480410160006800F48040AA
:102A500000900098012006904FF4803007904FF4CA
:102A600080000D9008200E904FF4A870CDE90F065D
:102A70000720119020460C96FFF726F810B172B689
:102A8000FEE700BF0F20CDE901064FF4A0500490EF
:102A90004FF48050059001A805210395FEF702FF31
:102AA00010B172B6FEE700BF12B070BD4EF688508E
:102AB000CEF20000016841F470010160704700002F
:102AC000806B0021C185FFF7EDB9000081B090F85F
:102AD0004210222921D183680246B3F5805F09D1D3
:102AE00052F8281F52F8183C002B63D003685B682B
:102AF0000AE000BF52F8281F13B90369002BF5D074
:102B000003685B6803F07F030B701168013111608B
:102B1000C18D01390A04C18502D001B0704700BFE0
:102B20000168CA6822F02002CA60CA6822F4807272
:102B3000CA604A6922F001024A61202180F84210ED
:102B400000214163026B012A3CD10163016851E815
:102B5000031F026821F0100142E80313DBB1016892
:102B600051E8031F026821F0100142E8031393B1FA
:102B7000016851E8031F026821F0100142E80313C5
:102B80004BB1016851E8031F026821F0100142E8CF
:102B90000313002BDAD101680A68D20606D5002299
:102BA00000920A680092496800910099818D01B0F5
:102BB000FFF776B9026852686FF35F2221F8022BA3
:102BC0008162A5E701B0FFF7D5BC0000B0B50446AF
:102BD000006804F108030ECB0569194325F440553C
:102BE0002A4302616269E3691143C268194349F2E9
:102BF0000C639A431143C1604169A26921F4407199
:102C000041F20043114340F48062C4F201039A424E
:102C1000416103D1FEF70CFF02E000BFFEF7F4FEB6
:102C2000E1694FF69C7563681922C0F6FF75B1F52E
:102C3000004FA0FB02011FD15A00DB0FFDF76AFB1A
:102C400048F21F51C5F2EB11A0FB01235A0905F10F
:102C5000805302FB0300322303EBC000A0FB010101
:102C60004FF4F87000EA111000EB0210C1F34211AA
:102C7000084421688860B0BD9A009B0FFDF74AFBAD
:102C800048F21F51C5F2EB11A0FB01235A0902FBC8
:102C90000500322303EB0010A0FB0101F02000EA45
:102CA000511000EB0210C1F3431108442168886001
:102CB000B0BD000040F64C00C2F20000FFF7F4B8CF
:102CC00090F88523120601D400225AE090F8892357
:102CD000120601D4012254E090F88D23120601D48B
:102CE00002224EE090F89123120601D4032248E01C
:102CF00090F89523120601D4042242E090F899231B
:102D0000120601D405223CE090F89D23120601D45E
:102D1000062236E090F8A123120601D4072230E003
:102D200090F8A523120601D408222AE090F8A923DE
:102D3000120601D4092224E090F8AD23120601D432
:102D40000A221EE090F8B123120601D40B2218E0EB
:102D500090F8B523120601D40C2212E090F8B923A2
:102D6000120601D40D220CE090F8BD23120601D406
:102D70000E2206E090F8C123120644BFFF207047E0
:102D80000F2200F5617001F5004140F82210104655
:102D90007047000080B584B0944601224FF0000EC9
:102DA000CDE9002119460223CDF80CE0CDF808C08A
:102DB00000F014FF002004B080BD000010B584B006
:102DC0009E4690F81D339446069A0024002B18BFA7
:102DD00022460123CDE900310392714600220223ED
:102DE000CDF808C000F0FAFE002004B010BD0000CD
:102DF000B0B50446D0F87C030722C06900F1400159
:102E000042F2A11020820020C4F812000720E082C4
:102E1000204600F0F7F9002818BFB0BDD4F8D4233D
:102E200005462046022190472846B0BDB0B504466D
:102E3000D0F87C03C569297841B1204600F0BAF981
:102E40002978204600F07CFB00202870297B41B1C6
:102E5000204600F0AFF9297B204600F071FB0020EE
:102E60002873697B41B1204600F0A4F9697B2046B4
:102E700000F066FB00206873D4F87C03C06928B1B9
:102E8000FDF721FAD4F87C030021C1610020B0BD18
:102E90002DE9F04184B002210222012304460226DA
:102EA00000F0D0FA012806D807462046394601F03E
:102EB00023F928B10226304604B0BDE8F08100BFF6
:102EC00001205021FDF7EAF90546D4F87C03C561DD
:102ED00085B304F242381A2017FB008191F90C00E7
:102EE000B0F1FF3F02DD002004E000BF0A31898815
:102EF00068706981C1B22046FFF7E2FE014694F88E
:102F00001D036A7894F81C336F890326CDE9000607
:102F100020462970029700F07DFE29782046002285
:102F200000F028FE20460A210022002300F08AFA41
:102F3000012805D90226304604B0BDE8F08100BF63
:102F40001A2110FB018090F90C100A30B1F1FF3FFB
:102F50008288C7BFA9732A83E9736A8390F90A102C
:102F6000B1F1FF3F04DD8089A973288304E000BF2D
:102F70008089E973A97B6883C9B22046FFF7A0FE68
:102F8000E97B68732046FFF79BFE697BAA7B94F878
:102F90001C3394F81D732E8B28734FF002082046C3
:102FA000CDE90078029600F035FE94F81D03297BE8
:102FB000EA7B94F81C336F8BCDE90008204602971A
:102FC00000F028FE697B00262046002285F84C6030
:102FD00000F0D0FD297B2046002200F0CBFD3046DA
:102FE00004B0BDE8F08100007047000070B582B009
:102FF000D0F87C13CE6996F84C10042910D8DFE87D
:1030000001F0035B13430700002002B070BD00BF56
:103010000021002400F0D4F8002808BF86F84C40B6
:10302000012002B070BD00BF42F2A1110182002157
:1030300006F14004C0F812100721C1822146072280
:10304000054600F0DFF80128EAD0002848D100202A
:1030500086F84C00B06C96F8441002799142DFD1AA
:1030600096F8461082799142DAD196F84510427965
:103070009142D5D1216800688142D1D12846FFF71D
:10308000B3FF012002B070BD96F84D1002292DD07B
:1030900001294DD1726A358BF169AA42737B88BFD1
:1030A0002A46012592B204460095FFF787FE0221C9
:1030B000204686F84D103BE042F22102B16C0282BC
:1030C0000022C0F812200722C28200F09BF80128DB
:1030D000A6D028B9022086F84C00012002B070BDAD
:1030E000042086F84C00012002B070BD717B0446BC
:1030F00000F0C2FC02280FD00128204618D1726AC5
:10310000318B8A420CD9F369521A1944F1610121B9
:10311000726286F84D100BE0012086F84D0006E043
:103120000020706286F84D00204600F041F82046ED
:10313000D0F87C13CD6995F84E1004290ED00329E0
:103140007FF46EAF296A6A8B2B7BFFF723FE042086
:1031500085F84E00012002B070BD00BF297B0446F7
:1031600000F08AFC01287FF45BAF297B204600F049
:1031700075FCA96A091A0DD06A8B90420AD12A6A95
:10318000A96210442862032085F84E00012002B095
:1031900070BD00BF002085F84E00204600F004F806
:1031A000012002B070BD0000704700000020704791
:1031B0007047000080B500F00DFC002080BD0000CD
:1031C0008278012A05D14FF4817281820021026147
:1031D000C1820021002200F015B8000080B584B043
:1031E000944601224FF0000ECDE90021194600233C
:1031F000CDF80CE0CDF808C000F0F0FC002004B0E1
:1032000080BD0000B0B582B08378022B0CD0012BBA
:1032100040F08B8081608281014601200222087685
:103220008A7002B0B0BD00BF017E01390A2900F2E8
:103230007C800FF20602DFE801F007512D390F5BA9
:103240006D4587217B0000BF427900F110010446E3
:1032500000F0E4F8022067E08168828943794FF04A
:10326000010C0446CDF800C000F0BEF8D4F8C41339
:103270000120E1810621217602B0B0BD41790446EA
:1032800000F0FAFB012827D004282FD0022817D0FD
:103290004BE000BFD0F8C443816882890379C481C0
:1032A0000446FFF79BFF04203EE000BF017904467F
:1032B00000F0E2FB052859D0042817D0012834D1AA
:1032C000092031E00179044600F0D6FB05284DD0F5
:1032D00004280BD0012828D1002148E04179044678
:1032E00000F0CAFB042818BF022859D10B201BE0AC
:1032F0004179044600F0C0FB421E042A4FF0010051
:1033000065D80321DFE802F0045C635E330000BF90
:10331000072009E00379002100220446FFF75EFF41
:10332000D4F8C403E08108202076012002B0B0BDAB
:10333000417E0131CAB2022A41761FD801460120DE
:103340000876887002B0B0BD43794FF0010C0021BF
:1033500000220446CDF800C000F046F8D4F8C413AB
:103360000120E1810A21217602B0B0BD03210120B4
:10337000A07000202076084602B0B0BDD0F8D4235B
:10338000062104469047617900252046657600F0C5
:10339000D7F82179204600F0D3F8257014E000BF5B
:1033A0000128C2D1E28A94F91010204692B1B1F1FD
:1033B000FF3FD4BF032105210176012002B0B0BD3B
:1033C0000520B1E70B2020760120A070022002B07A
:1033D000B0BD00BFB1F1FF3FCCBF0721092101768D
:1033E000012002B0B0BD000010B584B09E4690F838
:1033F0001D339446069A0024002B18BF2246012351
:10340000CDE900310392714600220023CDF808C0B7
:1034100000F0E4FB002004B010BD000080B584B0D3
:103420008C46002108230091CDE90231114600228B
:103430000023CDF804C000F0D1FB002004B080BD13
:10344000FDF72EBAFF2911D1FF2A21D1FF2B5FD022
:1034500090F8491399425BD090F863134FF0FF3016
:10346000994208BF0120C0B2704700BF90F847C31F
:10347000FF2A1DD1FF2B2DD18C4549D090F8612317
:103480004FF0FF308A4208BF0120C0B2704700BF32
:1034900090F84813FF2B29D1914239D090F862134C
:1034A0004FF0FF30914208BF0120C0B2704700BF0B
:1034B000FF2B23D18C4503D190F84833934227D07A
:1034C00090F861338B4237D190F8620390422FD04D
:1034D00032E000BF8C4503D190F849239A4217D0BF
:1034E00090F861238A421FD026E000BF914217D195
:1034F00090F8491399420BD012E000BF8C450BD1D4
:1035000090F848C3944507D190F849C39C4503D12E
:103510000020C0B2704700BF90F861C38C450BD14A
:1035200090F86213914207D190F86303984203D157
:103530000120C0B2704700BFFF20C0B2704700003A
:103540000F2907D800EB8100D0F884136FF3DF3127
:10355000C0F8841300207047B1F5807F82BF03203C
:10356000C0B270472DE9F04F87B00D46817800F169
:103570001C04012907D14FF4D06101824FF400717E
:10358000C0F81210C58221462A460646FFF73AFEC9
:1035900020B107B0BDE8F04FC0B27047307F0928B6
:1035A0001CBF092020700920717F86F83803F07F46
:1035B00086F8391300280CBF96F81EA04FF4807AC5
:1035C00096F82010D6F821000A2DA6F83AA386F81E
:1035D0003C13C6F83D03C0F0F98005960020BAF10F
:1035E0000A0F4FF000060091C0F0E380059909270B
:1035F00001F242310191002122781444637817448A
:10360000042B40F0CF8022780296092A1CBF0922A1
:103610002270019B1A2601FB0632714309265E5473
:1036200061784FF0000E5170A1789170E178D170FF
:10363000267916716179F6B25171A379022E9371D0
:10364000E579B346D5710495257A157228BF4FF0F8
:10365000020B002E039600F09E80BEB2564580F00D
:103660009A8003F0FE0381F0010183F00203194305
:10367000B1FA81F1490902F10A084FF000090691F7
:1036800094F800C064446178052940F07B80069876
:1036900040B10499207841B9092109284FF0090067
:1036A00001D102E007210846217008F8390060784E
:1036B00008EBC9025070A07805999070E37891F8F2
:1036C0001D53D3702079667940EA0621A1F20120CA
:1036D000918080B294F80690B0F57E4F4FF00000D4
:1036E00038BF0320022D82F8069019D0012D0FD08B
:1036F00005BB03F00303DFE803F011033F0300BF42
:10370000A9F1110111F1100F38BF032038E000BFFB
:1037100003F00303DFE803F0021A022640292DE03C
:1037200003F00303032B07D023B9B1F1080018BF3E
:10373000032025E0032023E089B2082988BF032065
:10374000B9F1000F08BF03201AE000BF89B2A9F148
:103750001102402988BF032012F1100F38BF032047
:103760000EE000BFF1B2032988BF0320B9F1000FBA
:1037700008BF032004E000BFB1F5007F88BF03202D
:103780000EF1010E5FFA8EF9D945674403D2B9B242
:103790005145FFF475AF039A5FFA8EF191421BD346
:1037A000029E0136F1B2012903D8BAB25245FFF4A4
:1037B00023AF009AF1B2022A28BF02228A4288BFB0
:1037C000032007B0BDE8F04FC0B27047002007B03B
:1037D000BDE8F04FC0B27047032007B0BDE8F04F1E
:1037E000C0B27047B1F5007F84BF03207047B0B509
:1037F0000C468178012900F58E7107D14FF4D06213
:1038000002824FF48072C0F81220C482224605461C
:10381000FFF7F8FC00B1B0BDD5F81C01B5F82121C7
:10382000C5F8260395F82001A5F82B2395F81D234C
:1038300085F82A0395F823012946022A85F82D03E5
:103840000CD208384FEAF00008280AD2C0B28B2206
:1038500022FA00F0C00704D006E000BF06D1082815
:1038600002D0082081F82D03002000E00320092C5D
:1038700038BFB0BDB1F8242191F82A31A1F82E2328
:10388000D1F8262181F83433C1F83023B1F82B2147
:1038900091F82D31A1F8352381F83733B0BD000000
:1038A00070B505464FF00300D2B11E46B3F5007F58
:1038B00088BF70BDA8781446012805F58E7209D11D
:1038C00001F540704FF4D061688240F209402982CE
:1038D000A882EE82284611463246FFF793FC08B1D3
:1038E00070BD00BF95F81D0103281CBF002070BDEE
:1038F00095F81C010238B04288BF304680B2E8B16A
:1039000005F58F71002200BF931C8E5C9BB2834231
:10391000267017D2CE5C131D9BB28342667015D2FF
:10392000CE5C931D9BB28342A67013D2CB5C08324F
:1039300092B2E370824204F10404E5D300202070C7
:1039400070BD00BF01340020207070BD0234002023
:10395000207070BD03340020207070BD002804BFAB
:1039600002207047F0B581B004460D4680F8CC23A4
:1039700000F55F704821FCF7ACFD00274FF4807123
:1039800001202770A4F80110C4F8C47320834020DC
:10399000A07104F11C00C4F81C134FF4407104F230
:1039A0002636FCF796FD30465021FCF770FD204688
:1039B00084F8237384F8207384F82173002D84F82D
:1039C000227318BFC4F8D45300F06AF8002001B085
:1039D000F0BD000080B5D0F8D003FDF775F840F2D7
:1039E00000220223C100C0F20122042838BF22FABB
:1039F00001F3D8B280BD00000146012081F8200308
:103A00000022002081F8212381F822237047000042
:103A100010B50446012084F82103002084F8200317
:103A200084F82303204600F0C7F821792046FFF7E9
:103A300087FD61792046FFF783FD002010BD00005F
:103A400080B590F8CC03012802D10846FEF770FE3D
:103A5000C820FCF725FF002080BD0000D0F8D0036F
:103A6000FDF72CB880B5D0F8D003FDF71BF803287C
:103A700028BF0120C0B280BDD0F8D003FDF716B832
:103A8000D0F8C4130131C0F8C41301780B2918BF52
:103A90007047D0F87C1309B1896908477047000066
:103AA00090F8CC13012927D110B540F26C41C2F235
:103AB0000001C1F8DC030446C0F8D0134FF0A04069
:103AC00008600820A1F805000120C8710220A1F8B3
:103AD00009000846FDF75CFD002818BFFCF782FED0
:103AE00040F26C40C2F20000FCF7D8FF01462046CD
:103AF00000F03CF8BDE810400020704710B584B0DD
:103B0000DDE906CE089CD0F8D003CDE900CE0294C2
:103B1000FCF7EEFF40F200220223C100C0F20122B6
:103B2000042838BF22FA01F3D8B204B010BD000057
:103B3000002180F82313012180F821137047000031
:103B4000012180F82313704780B5D0F8D003FDF72A
:103B5000BBFD40F200220223C100C0F20122042872
:103B600038BF22FA01F3D8B280BD0000C0F8C413F8
:103B700070470000D0F8D003C1EB011100EB8100C9
:103B8000C17D143000290CBF80F8292080F828203E
:103B90000020704780B5D0F8D003FDF79DFD40F2BE
:103BA00000220223C100C0F20122042838BF22FAF9
:103BB00001F3D8B280BD000080B5D0F8D003FDF786
:103BC000A3FD40F200220223C100C0F2012204281A
:103BD00038BF22FA01F3D8B280BD0000B0B584B07E
:103BE000DDE908CEDDE90A45D0F8D003CDE900CE05
:103BF000CDE90245FCF7D2FF40F200220223C100CA
:103C0000C0F20122042838BF22FA01F3D8B204B06E
:103C1000B0BD000010B584B0DDE906CE089CCDE94A
:103C200000CE0294FFF76AFF002004B010BD000030
:103C3000F0B585B0044602208DF8130094F82103F6
:103C4000012804BF0320207020780B2800F2138184
:103C5000DFE810F00C00F600BE007C0011012E0021
:103C6000660002010A0132011401220094F82003C7
:103C7000002800F0008101202070C820FFF7E0FB41
:103C80002046FFF761FF002084F81C03C4F8C80336
:103C9000002005B0F0BD00BFD4F87C03002800F080
:103CA000EA80416920468847002005B0F0BD00BF8A
:103CB0006078072800F2EE81DFE810F00800A0012C
:103CC000540182014801BE01CC018C01204608212B
:103CD000FFF788FD032800F0D381002840F0DA8147
:103CE00094F82D0394F81D230125217994F81C33B1
:103CF000A0716570002700920290204680220197F3
:103D0000FFF788FF94F81D0394F81C336179A679B6
:103D1000CDE90007204600220296FFF77BFFBAE1BB
:103D2000D4F87C03002800F0F08001692046884721
:103D30008DF813009DF81300002800F0FB809DF81B
:103D40001300022840F09780DFE000BF002604F552
:103D50006170402184F821634025FCF7BAFB4FF4E1
:103D6000807101202670A4F80110C4F8C463208378
:103D700004F11C00C4F81C134FF44071A57104F247
:103D80002635FCF7A6FB28465021FCF780FBD4F82B
:103D90007C0320B1C16820468847C4F87C63D4F80E
:103DA000D42312B120460521904794F8220301281C
:103DB00040F09880002084F822032046FFF7EAFEB6
:103DC00020460121FFF73CFE002005B0F0BD00BFFA
:103DD000D4F8D42312B12046042190476420FFF781
:103DE0002FFB2046FFF73EFE84F81D0305202070C0
:103DF000204600210025FEF763FF607120468021E8
:103E0000FEF75EFF014694F81D0394F81C33A67973
:103E10002171CDE90005204680220296FFF7FAFEC7
:103E200094F81D0394F81C336179A679CDE9000557
:103E3000204600220296FFF7EDFE002005B0F0BDFF
:103E400094F82303012853D1002084F81F03022093
:103E50002070002005B0F0BDD4F8D4235AB120461C
:103E60000121904725E100BF94F83D13204600F062
:103E70005BF900284ED0002005B0F0BDD4F88003D7
:103E80000028F8D0D4F8780394F8472301799142B8
:103E900018BF0020C4F87C03B8B381682046884767
:103EA00098BB06202070D4F8D423204603219047E5
:103EB000002005B0F0BD00BF94F83F0380060CD58C
:103EC0002046012100F03EF98DF813009DF8130003
:103ED00018B19DF813000328CDD10A2020700020CE
:103EE00005B0F0BD2046FFF755FE002005B0F0BD3F
:103EF000D4F8C803B0F57A7F12D994F81F030130C3
:103F0000C1B2042984F81F031AD30D2020700020A9
:103F100005B0F0BD09202070002005B0F0BD00BF45
:103F20000A30C4F8C8030A20FFF78AFA002005B057
:103F3000F0BD00BF0B202070002005B0F0BD00BF19
:103F400000202070002005B0F0BD00BFB4F83A1387
:103F50002046FFF701FB03285AD0002840F09A8042
:103F600005208AE020460121012500F0CFF8032832
:103F700000F08080002840F08E800220FFF760FA79
:103F800094F81D23A37901250320217984F81C537B
:103F90006070002600920293204680220123019641
:103FA000FFF738FE94F81D0394F81C336179A77964
:103FB000CDE90006204600220297FFF72BFE6AE0BB
:103FC00020460921FFF7C8FA032821D0002861D133
:103FD000042052E094F83613002949D004F58E727B
:103FE0002046FF23FFF75CFC0028014618BF012193
:103FF000033818BF012001EA00054CE020461221D9
:10400000FFF7F0FB032803D0002843D1022034E05F
:1040100094F81E030130C1B2042984F81E0337D27C
:1040200061792046FFF78CFA21792046FFF788FA5C
:10403000002060702DE000BF94F8341341B104F506
:104040008E722046FF23FFF72BFC032800D008BB0D
:10405000062012E094F8351341B104F58E72204623
:10406000FF23FFF71DFC032800D098B9072004E0C8
:10407000002510E00D202070002060700AE000BFD5
:1040800094F81E030130C1B2042984F81E031BD327
:104090000D20207001258DF813509DF81300002885
:1040A0007FF4E9AE94F837030021012884F8241343
:1040B00004D108202070002005B0F0BD072020703A
:1040C000002005B0F0BD00BF61792046FFF738FA47
:1040D00021792046FFF734FA0020DAE711B1D0F851
:1040E00080230AB1022070470122C0F88023C0F863
:1040F000781300207047000090F83C2391422EBFB7
:10410000022080F824130020704700008278012AE2
:1041100005D14FF4A0624182002102824161002159
:104120000022FFF76FB800008278012A05D14FF412
:104130001062418200210282416100210022FFF7CA
:1041400061B800008278012A05D14FF440724182A3
:1041500000210282416100210022FFF753B80000D4
:1041600010B50446FFF716FD20460121FFF768FC55
:10417000002010BD052913D0042909D0022918BF39
:104180007047022040F29001C2F2000108707047AF
:10419000012040F29001C2F200010870704700BF98
:1041A000032040F29001C2F2000108707047000045
:1041B00082B002F47F42B2F5807F40F09980826B3A
:1041C0004FF6BF7322F480328263C268CFF6BD73AC
:1041D0001A40C260029BC268DBB222F44012012B7B
:1041E000C26003D1C26842F48012C2600022009211
:1041F000009A01320092009AB2F1706F00F2F080E2
:104200000269002A21D4009A01320092009AB2F188
:10421000706F00F2E5800269002A16D4009A01321C
:104220000092009AB2F1706F00F2DA800269002AFF
:104230000BD4009A01320092009AB2F1706F00F232
:10424000CF800269B2F1FF3FD2DC0A220092009ACD
:10425000AAB100BF009A013A0092009A7AB1009A7E
:10426000013A0092009A52B1009A013A0092009AE3
:104270002AB1009A013A0092009A002AEAD1026912
:1042800042F001020261009A01320092009AB2F1FA
:10429000706F00F2A5800269D20720D0009A013227
:1042A0000092009AB2F1706F00F29A800269D20710
:1042B00015D0009A01320092009AB2F1706F00F2AC
:1042C0008F800269D2070AD0009A01320092009AC8
:1042D000B2F1706F00F284800269D207D3D14FF03F
:1042E000000C01F47F01B1F5803F40F099808FE030
:1042F000C26842F04002C26000220192019A01327B
:104300000192019AB2F1706F72D80269002A1ED42C
:10431000019A01320192019AB2F1706F68D8026974
:10432000002A14D4019A01320192019AB2F1706FFD
:104330005ED80269002A0AD4019A01320192019AD8
:10434000B2F1706F54D80269B2F1FF3FD6DC0A2295
:104350000192019AAAB100BF019A013A0192019A11
:104360007AB1019A013A0192019A52B1019A013A45
:104370000192019A2AB1019A013A0192019A002A06
:10438000EAD1026942F001020261019A013201920E
:10439000019AB2F1706F2BD80269D2071DD0019A31
:1043A00001320192019AB2F1706F21D80269D207ED
:1043B00013D0019A01320192019AB2F1706F17D8AD
:1043C0000269D20709D0019A01320192019AB2F131
:1043D000706F0DD80269D207D7D14FF0000C09E0F9
:1043E0004FF0030C01F47F01B1F5803F18D10FE0CD
:1043F0004FF0030C826B13F47F4F14BF22F4803212
:1044000042F48032826301F47F01B1F5803F07D12D
:10441000816841F006018160816841F0200181607E
:10442000604602B0704700000146806820F001023B
:1044300000208A607047000081B000220092D0F80E
:10444000402401290092009A22F02E020092009B43
:10445000009A08BF13F480530CD039B912F480517C
:1044600004D0009921F48051C0F84014002001B01C
:10447000704700BF42F48051C0F8401400980020FB
:1044800001B070470146806840F0010200208A6058
:104490007047000081B00021009100990131009126
:1044A0000099B1F1706F51D8016900291ED40099AB
:1044B000013100910099B1F1706F47D8016900296D
:1044C00014D40099013100910099B1F1706F3DD879
:1044D000016900290AD40099013100910099B1F1D4
:1044E000706F33D80169B1F1FF3FD6DC0021009134
:1044F000102101610099013100910099B1F1706FB3
:1045000024D80169C9061DD500990131009100998F
:10451000B1F1706F1AD80169C90613D5009901313C
:1045200000910099B1F1706F10D80169C90609D5E1
:104530000099013100910099B1F1706F06D80169BD
:10454000C906D7D4002001B0704700BF032001B0D6
:104550007047000081B000220092009A0132009260
:10456000009AB2F1706F51D80269002A1ED4009AE5
:1045700001320092009AB2F1706F47D80269002AA6
:1045800014D4009A01320092009AB2F1706F3DD8B3
:104590000269002A0AD4009A01320092009AB2F10C
:1045A000706F33D80269B2F1FF3FD6DC8901002277
:1045B0002031009201610099013100910099B1F11F
:1045C000706F23D8016989061DD5009901310091CA
:1045D0000099B1F1706F19D80169890613D5009956
:1045E000013100910099B1F1706F0FD8016989060E
:1045F00009D50099013100910099B1F1706F05D88A
:1046000001698906D7D4002001B07047032001B0AA
:1046100070470000D0F8080480B2704781B00021D4
:104620000091D0F8400400900098C0F3414001B0E0
:1046300070470000406900F00100704710B581B07C
:104640000022009200EB4113D3F80045D3F800E5B7
:10465000D3F80415826803F5A06C92060AD50029E8
:1046600008D4BEF1FF3F02DC14F4802104D0002006
:1046700001B010BD61034BD4DCF8001041F0804163
:10468000CCF800108168890600F19080C16ADCF8DE
:10469000000011F47F0F40F08B8020F00040CCF838
:1046A0000000DCF8000040F00040CCF8000000986A
:1046B000013000900098B0F57A7FD8D8DCF800007F
:1046C000B0F1FF3FD3DC0098013000900098B0F5C6
:1046D0007A7FCCD8DCF80000B0F1FF3FC7DC00984F
:1046E000013000900098B0F57A7FC0D8DCF8000067
:1046F000B0F1FF3FBBDC0098013000900098B0F5AE
:104700007A7FB4D8DCF80000B0F1FF3FCFDDAEE730
:10471000DCF8001041F08041CCF80010D0F8101403
:10472000DCF8000011F47F0F42D120F00040CCF8FB
:104730000000DCF8000040F00040CCF800000098D9
:10474000013000900098B0F57A7F90D8DCF8000036
:10475000B0F1FF3F3FF78BAF009801300090009819
:10476000B0F57A7F3FF683AFDCF80000B0F1FF3F91
:104770003FF77DAF0098013000900098B0F57A7F48
:104780003FF675AFDCF80000B0F1FF3F3FF76FAFC9
:104790000098013000900098B0F57A7F3FF667AF3F
:1047A000DCF80000B0F1FF3FC9DD60E7DCF8000095
:1047B00040F00040CCF80000002001B010BD000027
:1047C0002DE9F04381B0DDE908840A9E00EB411732
:1047D00007F5A06E4FF0FF35032C4FF00109C7F825
:1047E000085500F27D80DFE804F00313031F00BFCB
:1047F00040F29D4C754657B2002F45F80CCF1CD4A3
:104800000027C4F20407B8421DD14FF0600C16E037
:1048100040F2252C754657B2B7F1FF3F45F80CCF53
:1048200011DC4FF4C07C0AE040F29D6C754657B233
:10483000B7F1FF3F45F80CCF05DC4FF4807C2F68C3
:1048400047EA0C072F604FF0000C0025CEF804500B
:10485000DEF80C7001F00F0147F00207CEF80C7083
:10486000D0F8187409FA01F13943C0F818148169B5
:1048700003F07F0341F0007181610095D0F840049E
:1048800002F0800100900098090200F4C02062F359
:10489000CE2104F0030541EA8351B0F5802F4FF497
:1048A00080106FF3DF2641EA854118BF4FF4901066
:1048B00031444FF48012B8F1020F18BF104608447B
:1048C00004F0FD010129CEF8000005D1DEF800005A
:1048D00040F00050CEF80000604601B0BDE8F08323
:1048E0004FF0010CB1E70000D0F8140480B270471B
:1048F000F0B581B00023C4F2040391F801C09842DE
:1049000022D091F806E0BEF1010F07D1CE78002E3B
:1049100046D08C8A0125CC6175E000BF0C6A002C62
:104920004ED08B8AE518013DB5FBF3F5ABB2B3F57C
:10493000807F88BF4FF48075CE78002E44D08B8A5C
:10494000ACB25C43CC615EE0012A11D18B7C43F0B8
:104950000203022BD5D18B79002BD2D100EB4C1363
:10496000D3F80C6526F07006C3F80C65C9E700BFE4
:104970000E79002EC5D14E79012EC2D1002103EB54
:104980004C10C8F20801C0F81015D0F8001502222A
:1049900062F39F71C0F80015002001B0F0BD00BFA8
:1049A0008B7C012B12D10C6ABD2C1FD3CB688C8A57
:1049B000013B012BCC610C6222D802231DE000BF19
:1049C0000125CE78002EBAD1CC611BE00C6A012AF9
:1049D00008D18B8A9C4205D9CB61012500261C4653
:1049E00011E000BFCC6101250CE000BFCB68CC61B9
:1049F000013B022B34BF03230423CB60012501E0DC
:104A00000125CD6000268B7D6FF3DF4465F3DC4428
:104A100003F0030344EA437300EB4C15C5F810356B
:104A200005F5A064002A1CBF8B696361D0F80834C7
:104A30002568BEF1010F25F0005525604FF00055A7
:104A4000276825EA437343EA0703236016D10B7CEA
:104A50004F7CCD7943EAC71303F100436360E368F9
:104A6000012D43F06003E36008BF002E36D08B7C3D
:104A700043F00207032F3ED002E000BF0023636033
:104A80002368002E0093009B23F08043009355D1B0
:104A9000009B002A23F400430093009B43F0004353
:104AA0000093009B23607FF477AF0A6A002A3FF4EB
:104AB00073AFCB79002B7FF46FAF8B7C032B58D86F
:104AC000DFE803F0024A024AC76AD31CC3F38F032C
:104AD000BFB2BB424DD9202348E000BF636843F416
:104AE00080336360E36843F04003E3608B7C43F012
:104AF0000207032FC4D1012D08BF012E14D0012BB2
:104B0000BED1AEB9CB68013B042B05D232A757F812
:104B1000233067683B43636023680093009B23F066
:104B200080430093B4E700BF606840F48030606069
:104B300020680090009820F080400090009840F499
:104B400000400090009840F00040009000982060E5
:104B5000002001B0F0BD00BFD0F81074D31CC3F327
:104B60008F03BFB2BB4204D94FF0806387693B43D8
:104B7000836192B2002A3FF40FAFD61C4FF0FF338F
:104B8000896903EB960300F580504FEA0C32032B42
:104B9000C6F381030ED3B70827F003050F68043D61
:104BA00017504F6817508F681750CF6801F11001E8
:104BB0001750F3D1002B3FF4EFAE0F68012B875055
:104BC0003FF4EAAE4F68022B87501CBF89688150C2
:104BD000002001B0F0BD00BF008000000E0000000A
:104BE0000040000000C0000070B582B08646002082
:104BF000CEF8000EDEF8380040F40010CEF8380091
:104C0000DEF8380020F40020CEF83800DEF8380056
:104C100020F48020CEF83800DEF80C00400609D4DD
:104C200001F07F42DEF80004B2F1807F04D140F051
:104C3000040003E0DEF8000420F00400CEF80004D5
:104C40000B0A002000900098013000900098B0F10D
:104C5000706F59D8DEF81000002821D40098013078
:104C600000900098B0F1706F4ED8DEF81000002868
:104C700016D40098013000900098B0F1706F43D8BE
:104C8000DEF8100000280BD4009801300090009846
:104C9000B0F1706F38D8DEF81000B0F1FF3FD2DC11
:104CA000002000904FF48460CEF81000009801308E
:104CB00000900098B0F1706F26D8DEF810008006E2
:104CC00020D50098013000900098B0F1706F1BD88B
:104CD000DEF81000800615D500980130009000988D
:104CE000B0F1706F10D8DEF8100080060AD5009879
:104CF000013000900098B0F1706F05D8DEF8100018
:104D00008006D3D4002000E0012000220192019A05
:104D100001320192019AB2F1706F57D8DEF810207B
:104D2000002A21D4019A01320192019AB2F1706FE6
:104D30004CD8DEF81020002A16D4019A01320192D4
:104D4000019AB2F1706F41D8DEF81020002A0BD41E
:104D5000019A01320192019AB2F1706F36D8DEF8F1
:104D60001020B2F1FF3FD2DC002201921022CEF8D7
:104D70001020019A01320192019AB2F1706F25D888
:104D8000DEF81020D20626D5019A01320192019A4E
:104D9000B2F1706F1AD8DEF81020D2061BD5019A36
:104DA00001320192019AB2F1706F13D8DEF810202F
:104DB000D20610D5019A01320192019AB2F1706FB8
:104DC00004D8DEF81020D206D3D404E00120DCB2EF
:104DD0001CB93BE00120DCB2C4B303F0030C002398
:104DE000042C4FF0000218D3A4EB0C040EF5AC65B4
:104DF0004FF0FF36043245F8586C45F8543C45F8FE
:104E0000386C45F8343C45F8186C45F8143CAE60F5
:104E1000EB60944205F18005ECD1BCF1000F15D098
:104E20000EF5A06303EB42124FF0FF340023BCF1F8
:104E3000010F9460D36009D0BCF1020F9462D36279
:104E400004D04FF0FF3393640023D3640022C4F2F4
:104E500004020023CEF818304FF0FF339645CEF809
:104E600014301FD08022CEF824208022C0F26002AD
:104E7000CEF82820E022C0F24002CEF8002111F442
:104E80007F0F05D1DEF8181041F01001CEF8181090
:104E9000DEF818100822CAF220321143CEF818109A
:104EA00002B070BD4FF40073536240F20023C0F2B1
:104EB0000013936240F20033C0F2E003C2F8003105
:104EC00011F47F0FE4D1DDE7D0F8002401F00303F3
:104ED00022F00302C0F80024D0F80024012942EA9D
:104EE0000302C0F8002409D002291CBF012070472A
:104EF00041F27071C0F80414002070474BF6803105
:104F0000C0F804140020704700EB4110D0F80815D9
:104F1000D0F80C0508407047416980690840704727
:104F200010B5930802F0030E2CD05A1E032A03F08A
:104F3000030C0FD323F003034FF480528458043B37
:104F40000C6084584C6084588C608458CC6001F1AB
:104F50001001F3D1BCF1000F14D04FF480528458EB
:104F60000B46BCF1010F43F8044B05D11946BEF1C5
:104F7000000F0AD11EE000BF8258BCF1020F4A6048
:104F80001AD10831BEF1000F14D04FF4805280586E
:104F90000A46BEF1010F02F8010B04BF104610BD16
:104FA000020ABEF1020F4A7004BF881C10BD000C3B
:104FB00088700331084610BD4FF4805282588A60D1
:104FC0000C31BEF1000FE0D1F4E7000010B582B063
:104FD000044600200190D4F840040190019820F08C
:104FE0002E000190019840F48070C4F840046420C1
:104FF000FBF756FC019820F48070C4F840040A20A6
:10500000FBF74EFC002002B010BD0000B0B5044616
:10501000C068002920F0C040E06000F099800129BC
:1050200040F0B080E0680A2540F00050E0600A20BF
:10503000FBF736FC54F8140FC00740F09C800A20A0
:10504000FBF72EFC2068C00740F09E800A20FBF78B
:1050500027FC2068C00740F0A5800A20FBF720FC51
:105060002068C00740F0AC800A20FBF719FC2068DC
:10507000C00740F0B3800A20FBF712FC2068C0078D
:1050800040F0BA800A20FBF70BFC2068C00740F014
:10509000C1800A20FBF704FC2068C00740F0C880EC
:1050A0000A20FBF7FDFB2068C00740F0CF800A20F4
:1050B000FBF7F6FB2068C00740F0D6800A20FBF71C
:1050C000EFFB2068C00740F0DD800A20FBF7E8FB1B
:1050D0002068C00740F0E4800A20FBF7E1FB20686D
:1050E000C00740F0EB800A20FBF7DAFB2068C0071E
:1050F00040F0F2800A20FBF7D3FB2068C00740F0A5
:10510000F9800A20FBF7CCFB2068C00740F0008143
:105110000A20FBF7C5FB2068C00740F007810A2082
:10512000FBF7BEFB2068C00740F00E810A20FBF7AA
:10513000B7FB2068C00740F016810A20FBF7B0FBE0
:105140002068C825A5F1C800B0FA80F04009B0BDBC
:10515000E0680A2540F08040E0600A20FBF7A0FBF1
:1051600054F8140FC00706D00A20FBF799FB2068FB
:10517000C00711D11425A5F1C800B0FA80F040098C
:10518000B0BD00BF0120B0BD1425A5F1C800B0FA24
:1051900080F04009B0BD00BF0A20FBF781FB20680A
:1051A000C00707D11E25A5F1C800B0FA80F040095C
:1051B000B0BD00BF0A20FBF773FB2068C00707D112
:1051C0002825A5F1C800B0FA80F04009B0BD00BFA5
:1051D0000A20FBF765FB2068C00707D13225A5F13F
:1051E000C800B0FA80F04009B0BD00BF0A20FBF74C
:1051F00057FB2068C00707D13C25A5F1C800B0FACD
:1052000080F04009B0BD00BF0A20FBF749FB2068D1
:10521000C00707D14625A5F1C800B0FA80F04009C3
:10522000B0BD00BF0A20FBF73BFB2068C00707D1D9
:105230005025A5F1C800B0FA80F04009B0BD00BF0C
:105240000A20FBF72DFB2068C00707D15A25A5F1DE
:10525000C800B0FA80F04009B0BD00BF0A20FBF7DB
:105260001FFB2068C00707D16425A5F1C800B0FA6C
:1052700080F04009B0BD00BF0A20FBF711FB206899
:10528000C00707D16E25A5F1C800B0FA80F040092B
:10529000B0BD00BF0A20FBF703FB2068C00707D1A1
:1052A0007825A5F1C800B0FA80F04009B0BD00BF74
:1052B0000A20FBF7F5FA2068C00707D18225A5F17F
:1052C000C800B0FA80F04009B0BD00BF0A20FBF76B
:1052D000E7FA2068C00707D18C25A5F1C800B0FA0D
:1052E00080F04009B0BD00BF0A20FBF7D9FA206862
:1052F000C00707D19625A5F1C800B0FA80F0400993
:10530000B0BD00BF0A20FBF7CBFA2068C00707D169
:10531000A025A5F1C800B0FA80F04009B0BD00BFDB
:105320000A20FBF7BDFA2068C00707D1AA25A5F11E
:10533000C800B0FA80F04009B0BD00BF0A20FBF7FA
:10534000AFFA2068C00707D1B425A5F1C800B0FAAC
:1053500080F04009B0BD00BF0A20FBF7A1FA206829
:10536000C0077FF4EAAEBE25A5F1C800B0FA80F010
:105370004009B0BD83B00146002000908A6822F049
:1053800001028A6001900198013001900198B0F10A
:10539000706F51D8086900281ED40198013001901F
:1053A0000198B0F1706F47D80869002814D40198AB
:1053B000013001900198B0F1706F3DD80869002864
:1053C0000AD40198013001900198B0F1706F33D880
:1053D0000869B0F1FF3FD6DC002001904FF48460F3
:1053E00008610198013001900198B0F1706F23D8E5
:1053F000086980061DD50198013001900198B0F12F
:10540000706F19D80869800613D501980130019092
:105410000198B0F1706F0FD80869800609D501981E
:10542000013001900198B0F1706F05D808698006CD
:10543000D7D4002001E000BF012000220292029A8E
:1054400001320292029AB2F1706F4FD80A69002AB3
:105450001ED4029A01320292029AB2F1706F45D8BC
:105460000A69002A14D4029A01320292029AB2F115
:10547000706F3BD80A69002A0AD4029A013202925C
:10548000029AB2F1706F31D80A69B2F1FF3FD6DCEF
:105490000022029210220A61029A01320292029ABA
:1054A000B2F1706F22D80A69D20620D5029A013271
:1054B0000292029AB2F1706F18D80A69D20616D514
:1054C000029A01320292029AB2F1706F0ED80A6902
:1054D000D2060CD5029A01320292029AB2F1706F92
:1054E00004D80A69D206D7D401E000BF0120D1F860
:1054F000003547F6FF72C3F6FF72134003F1804395
:10550000C1F80035D1F82035134003F18043C1F8CC
:105510002035D1F84035134003F18043C1F84035C0
:10552000D1F86035134003F18043C1F86035D1F8FC
:105530008035134003F18043C1F88035D1F8A035A0
:10554000134003F18043C1F8A035D1F8C0351340B2
:1055500003F18043C1F8C035D1F8E035134003F1C1
:105560008043C1F8E035D1F80036134003F18043A1
:10557000C1F80036D1F82036134003F18043C1F85A
:105580002036D1F84036134003F18043C1F840364D
:10559000D1F86036134003F18043C1F86036D1F88A
:1055A0008036134003F18043C1F88036D1F8A0362D
:1055B000134003F18043C1F8A036D1F8C036134040
:1055C00003F18043C1F8C036D1F8E036134003F14F
:1055D0008043C1F8E036D1F80035134003F1404371
:1055E000C1F80035009B01330093009BB3F57A7F2F
:1055F00027D8D1F80035B3F1FF3F22DC009B0133FF
:105600000093009BB3F57A7F1BD8D1F80035B3F136
:10561000FF3F16DC009B01330093009BB3F57A7FBC
:105620000FD8D1F80035B3F1FF3F0ADC009B0133FE
:105630000093009BB3F57A7F03D8D1F80035002B97
:10564000D0D4D1F82035134003F14043C1F82035C0
:10565000009B01330093009BB3F57A7F27D8D1F8E4
:105660002035B3F1FF3F22DC009B01330093009B08
:10567000B3F57A7F1BD8D1F82035B3F1FF3F16DCA4
:10568000009B01330093009BB3F57A7F0FD8D1F8CC
:105690002035B3F1FF3F0ADC009B01330093009BF0
:1056A000B3F57A7F03D8D1F82035002BD0D4D1F8C8
:1056B0004035134003F14043C1F84035009B0133AE
:1056C0000093009BB3F57A7F27D8D1F84035B3F12A
:1056D000FF3F22DC009B01330093009BB3F57A7FF0
:1056E0001BD8D1F84035B3F1FF3F16DC009B0133E6
:1056F0000093009BB3F57A7F0FD8D1F84035B3F112
:10570000FF3F0ADC009B01330093009BB3F57A7FD7
:1057100003D8D1F84035002BD0D4D1F860351340F0
:1057200003F14043C1F86035009B01330093009BB7
:10573000B3F57A7F27D8D1F86035B3F1FF3F22DC8B
:10574000009B01330093009BB3F57A7F1BD8D1F8FF
:105750006035B3F1FF3F16DC009B01330093009BE3
:10576000B3F57A7F0FD8D1F86035B3F1FF3F0ADC8B
:10577000009B01330093009BB3F57A7F03D8D1F8E7
:105780006035002BD0D4D1F88035134003F140436D
:10579000C1F88035009B01330093009BB3F57A7FFD
:1057A00027D8D1F88035B3F1FF3F22DC009B0133CD
:1057B0000093009BB3F57A7F1BD8D1F88035B3F105
:1057C000FF3F16DC009B01330093009BB3F57A7F0B
:1057D0000FD8D1F88035B3F1FF3F0ADC009B0133CD
:1057E0000093009BB3F57A7F03D8D1F88035002B66
:1057F000D0D4D1F8A035134003F14043C1F8A0350F
:10580000009B01330093009BB3F57A7F27D8D1F832
:10581000A035B3F1FF3F22DC009B01330093009BD6
:10582000B3F57A7F1BD8D1F8A035B3F1FF3F16DC72
:10583000009B01330093009BB3F57A7F0FD8D1F81A
:10584000A035B3F1FF3F0ADC009B01330093009BBE
:10585000B3F57A7F03D8D1F8A035002BD0D4D1F896
:10586000C035134003F14043C1F8C035009B0133FC
:105870000093009BB3F57A7F27D8D1F8C035B3F1F8
:10588000FF3F22DC009B01330093009BB3F57A7F3E
:105890001BD8D1F8C035B3F1FF3F16DC009B0133B4
:1058A0000093009BB3F57A7F0FD8D1F8C035B3F1E0
:1058B000FF3F0ADC009B01330093009BB3F57A7F26
:1058C00003D8D1F8C035002BD0D4D1F8E03513403F
:1058D00003F14043C1F8E035009B01330093009B86
:1058E000B3F57A7F27D8D1F8E035B3F1FF3F22DC5A
:1058F000009B01330093009BB3F57A7F1BD8D1F84E
:10590000E035B3F1FF3F16DC009B01330093009BB1
:10591000B3F57A7F0FD8D1F8E035B3F1FF3F0ADC59
:10592000009B01330093009BB3F57A7F03D8D1F835
:10593000E035002BD0D4D1F80036134003F14043BA
:10594000C1F80036009B01330093009BB3F57A7FCA
:1059500027D8D1F80036B3F1FF3F22DC009B01339A
:105960000093009BB3F57A7F1BD8D1F80036B3F1D2
:10597000FF3F16DC009B01330093009BB3F57A7F59
:105980000FD8D1F80036B3F1FF3F0ADC009B01339A
:105990000093009BB3F57A7F03D8D1F80036002B33
:1059A000D0D4D1F82036134003F14043C1F820365B
:1059B000009B01330093009BB3F57A7F27D8D1F881
:1059C0002036B3F1FF3F22DC009B01330093009BA4
:1059D000B3F57A7F1BD8D1F82036B3F1FF3F16DC40
:1059E000009B01330093009BB3F57A7F0FD8D1F869
:1059F0002036B3F1FF3F0ADC009B01330093009B8C
:105A0000B3F57A7F03D8D1F82036002BD0D4D1F863
:105A10004036134003F14043C1F84036009B013348
:105A20000093009BB3F57A7F27D8D1F84036B3F1C5
:105A3000FF3F22DC009B01330093009BB3F57A7F8C
:105A40001BD8D1F84036B3F1FF3F16DC009B013381
:105A50000093009BB3F57A7F0FD8D1F84036B3F1AD
:105A6000FF3F0ADC009B01330093009BB3F57A7F74
:105A700003D8D1F84036002BD0D4D1F8603613408B
:105A800003F14043C1F86036009B01330093009B53
:105A9000B3F57A7F27D8D1F86036B3F1FF3F22DC27
:105AA000009B01330093009BB3F57A7F1BD8D1F89C
:105AB0006036B3F1FF3F16DC009B01330093009B7F
:105AC000B3F57A7F0FD8D1F86036B3F1FF3F0ADC27
:105AD000009B01330093009BB3F57A7F03D8D1F884
